S00E00004156522D53442E7372656369
S11300000C9426020C9443020C9443020C94430275
S11300100C9443020C9443020C9443020C94430248
S11300200C9443020C9443020C9443020C94430238
S11300300C9443020C9443020C9443020C94430228
S11300400C9443020C9443020C9443020C94430218
S11300500C9443020C9443020C9443020C94430208
S11300600C9443020C94430271109410E610961100
S1130070961122112C112C112C119311204672650A
S113008065204D656D6F72793A2000546F74616C10
S1130090204D656D6F72793A20004572726F72203F
S11300A0696E2067657474696E6720636C75737418
S11300B0657200456E64206F6620436C75737465C9
S11300C07220436861696E002046696C6520437242
S11300D0656174656421002046696C6520617070F7
S11300E0656E6465642100204E6F2066726565202C
S11300F0636C7573746572210020456E746572209B
S1130100746578742028656E642077697468207E2D
S1130110293A00204E6F206672656520636C757302
S11301207465722100204372656174696E672046AC
S1130130696C652E2E00202046696C6520616C7206
S113014065616479206578697374696E672C2061D0
S11301507070656E64696E6720646174612E2E0030
S1130160496E76616C69642066696C654E616D6583
S11301702E2E004572726F7220696E20676574744A
S1130180696E6720636C7573746572004572726F73
S11301907220696E2067657474696E6720636C757C
S11301A07374657200524F4F54004449520020202A
S11301B0200046494C45002020200046696C6520FB
S11301C064656C65746564210044656C6574696E6E
S11301D0672E2E0046696C6520646F6573206E6F10
S11301E074206578697374210020496E76616C69A6
S11301F064206F7074696F6E21002066696C6520DD
S11302006E616D6520746F6F206C6F6E672E2E00AB
S1130210456E7465722066696C65206E616D653A21
S1130220200052656164207375636365737366753A
S11302306C210052656164206661696C65642E2ED0
S113024000577269746520737563636573736675AB
S11302506C21005772697465206661696C65642E4F
S11302602E0020456E7465722074657874202845CC
S11302706E642077697468207E293A004572617340
S1130280656421004572617365206661696C65640B
S11302902E2E00456E7465722074686520426C6F62
S11302A0636B206E756D6265722028303030302D9E
S11302B039393939293A004641543332206F707440
S11302C0696F6E732064697361626C656421003EBA
S11302D02053656C656374204F7074696F6E2028B9
S11302E0302D39293A20003E2039203A20526561C8
S11302F064205344204D656D6F72792043617061B1
S1130300636974792028546F74616C2F4672656533
S113031029003E2038203A2044656C6574652046E7
S1130320696C65003E2037203A2057726974652055
S113033046696C65003E2036203A2052656164208F
S113034046696C65003E2035203A20476574206676
S1130350696C65206C697374003E2032203A205227
S11303606561642073696E676C6520426C6F636BB2
S1130370003E2031203A2057726974652073696EFB
S1130380676C6520426C6F636B003E2030203A201E
S1130390457261736520426C6F636B7300507265C4
S11303A0737320616E79206B65792E2E2E00464181
S11303B0543332206E6F7420666F756E642100555D
S11303C06E6B6E6F776E20534420436172642044D9
S11303D06574656374656421005374616E6461724D
S11303E0642043617061636974792043617264209D
S11303F02856657220322E7829204465746563740A
S113040065642100486967682043617061636974A9
S11304107920436172642044657465637465642162
S1130420005374616E646172642043617061636936
S113043074792043617264202856657220312E78C5
S113044029204465746563746564210011241FBE0A
S1130450CFEFD8E0DEBFCDBF11E0A0E0B1E0E4ED26
S1130460FDE202C005900D92A83FB107D9F724E040
S1130470A8EFB1E001C01D92AF32B207E1F70E94CC
S1130480A00E0C94E8160C940000CF92DF92EF9229
S1130490FF92A0911204B0911304C090FC01D0907B
S11304A0FD01E090FE01F090FF019B01AC012250A0
S11304B03109410951090E9413146C0D7D1D8E1DD3
S11304C09F1DFF90EF90DF90CF9008954F925F9221
S11304D06F927F928F929F92AF92BF92CF92DF9250
S11304E0EF92FF920F931F93CF93DF93C42F2801B2
S11304F0390140911D0450911E044B015C01880C8C
S1130500991CAA1CBB1C880C991CAA1CBB1C2091FE
S1130510040230910502C0901404D0901504E090B8
S11305201604F0901704C40ED51EE11CF11C40E023
S113053050E0C501B4010E94DC13C20ED31EE41EB8
S1130540F51E209104023091050240E050E0C501FF
S1130550B4010E94DC134B015C01DAE0C701B6016F
S11305600E94FF12882311F0D150C1F7F401EE5E0E
S1130570FD4FC11108C080819181A281B381BC016A
S1130580CD019F700BC04082518262827382C70189
S1130590B6010E942E1360E070E0CB01DF91CF9191
S11305A01F910F91FF90EF90DF90CF90BF90AF908D
S11305B09F908F907F906F905F904F900895CF920F
S11305C0DF92EF92FF92CF93DF93D82FC62F69016A
S11305D07A018091140490911504A0911604B091AD
S11305E01704BC01CD016F5F7F4F8F4F9F4F0E9457
S11305F0FF12409112025091130260911402709103
S11306001502423552456146714409F059C0409182
S1130610F6035091F7036091F8037091F9034237A0
S113062052476144714609F04FC040910E04509105
S11306300F04609110047091110441155105654532
S11306407A4A09F045C0C11114C0D13049F460910F
S1130650FA037091FB038091FC039091FD033BC06E
S11306606091FE037091FF03809100049091010456
S113067032C0D13049F4C092FA03D092FB03E09225
S1130680FC03F092FD0308C0C092FE03D092FF0366
S1130690E0920004F09201048091140490911504F6
S11306A0A0911604B0911704BC01CD016F5F7F4F78
S11306B08F4F9F4F0E942E136FEF7FEFCB010BC024
S11306C06FEF7FEFCB0107C06FEF7FEFCB0103C06C
S11306D06FEF7FEFCB01DF91CF91FF90EF90DF9031
S11306E0CF900895CF92DF92EF92FF920F931F93D2
S11306F0CF93DF93109214041092150410921604F1
S11307001092170460E070E0CB010E94FF12809108
S113071012028D7F893E01F18091100490911104A1
S113072085359A4A09F0AAC06091D8037091D9031B
S11307308091DA039091DB036093140470931504A1
S113074080931604909317040E94FF128091120262
S11307508D7F893E09F094C080911D0290911E0204
S1130760909305028093040280911F0290E090937D
S1130770130480931204E0912002F0912102F0937B
S11307801E04E0931D0480913E0290913F02A091CB
S11307904002B091410280930A0290930B02A0930D
S11307A00C02B0930D02C0911D04D0911E04A091BF
S11307B02202209136023091370240913802509142
S11307C03902B0E00E94131400912E0210912F02FE
S11307D020913002309131020C0F1D1F211D311D5B
S11307E0060F171F281F391F0093FC011093FD01EA
S11307F02093FE013093FF014091120450911304A1
S1130800009132021091330220913402309135026A
S11308100E1B1F0B2109310968017901C61AD70A79
S1130820E80AF90AC701B6019A0140E050E00E94C3
S1130830DC1320930602309307024093080250937E
S1130840090220E030E0A90160E081E00E94DF02BB
S113085000910602109107022091080230910902CA
S1130860061717072807390720F41092240480E09C
S113087008C081E08093240480E003C081E001C0CB
S113088081E0DF91CF911F910F91FF90EF90DF9066
S1130890CF900895CF93DF93CDB7DEB72B970FB6E4
S11308A0F894DEBF0FBECDBFFC0120812E3271F063
S11308B0319631E021912E3221F03F5F3C30D1F767
S11308C009C0393038F431110BC001C030E0232F96
S11308D040E214C080E691E00E94A91381E056C072
S11308E0482FDE011196E82FF92F21912D932E2FF9
S11308F0241B2317D0F3383050F30AC0E1E0F0E0B2
S1130900EC0FFD1FE20FF11D40832F5F2830B0F381
S11309103F5F28E0FC01E30FF11D4081411103C05A
S11309202B3050F017C03F5FE1E0F0E0EC0FFD1F0B
S1130930E20FF11D40830EC040E231E0320FE1E0EE
S1130940F0E0EC0FFD1FE20FF11D40833B3029F076
S1130950232FF3CF2F5F2B30E8F29E01245F3F4F0C
S1130960FE01319640815FE9540F5A3110F4405230
S113097040833196E217F307A9F7DC01FE013196B3
S113098081918D932E173F07D9F780E02B960FB6F0
S1130990F894DEBF0FBECDBFDF91CF9108954F9283
S11309A05F926F927F928F929F92AF92BF92CF92FB
S11309B0DF92EF92FF921F93CF93DF936B017C0141
S11309C020E8C2228091060290910702A0910802B9
S11309D0B0910902C816D906EA06FB0608F06DC0F4
S11309E046015701880C991CAA1CBB1C880C991C35
S11309F0AA1CBB1CC2E1D2E011E080911D049091BD
S1130A001E04209104023091050240901404509079
S1130A1015046090160470901704480E591E611C4A
S1130A20711C40E050E0C501B4010E94DC13C30115
S1130A30B201620F731F841F951F0E94FF128881E9
S1130A409981AA81BB81BF70892B8A2B8B2B99F04A
S1130A50212FE22FF0E0EE0FFF1FEE0FFF1FEE5EDF
S1130A60FD4F80819181A281B381BF70892B8A2B34
S1130A708B2B49F401C020E0C701B601620F711D40
S1130A80811D911D21C02F5F22F780E8C80ED11C63
S1130A90E11CF11C8091060290910702A0910802CA
S1130AA0B091090222E0920EA11CB11CC816D9060D
S1130AB0EA06FB0608F4A1CF04C060E070E0CB01B5
S1130AC003C060E070E0CB01DF91CF911F91FF90F4
S1130AD0EF90DF90CF90BF90AF909F908F907F90DA
S1130AE06F905F904F9008959F92AF92BF92CF9274
S1130AF0DF92EF92FF920F931F93CF93DF93CDB7C3
S1130B00DEB764970FB6F894DEBF0FBECDBF982E44
S1130B10CB01BA0124E1EEE0F1E0DE01119601908F
S1130B200D922A95E1F70F2EFCE0BF2EF02D0F2E2B
S1130B30FCE2AF2EF02D0F2EFAE0CF2ED12CE12CBB
S1130B40F12CF02D25E0B21619F0E9E0BE1205C033
S1130B50FE01EB0DF11DA082BA948E010B0D111D47
S1130B60A70196010E94DC136063F8016083622F81
S1130B70732F842F952F611571058105910511F04F
S1130B80BA9401F7F1E09F1202C08BE48E87CE0184
S1130B9001960E94BD1364960FB6F894DEBF0FBE93
S1130BA0CDBFDF91CF911F910F91FF90EF90DF9018
S1130BB0CF90BF90AF909F9008952F923F924F9205
S1130BC05F926F927F928F929F92AF92BF92CF92D9
S1130BD0DF92EF92FF920F931F93CF93DF9300D096
S1130BE000D0CDB7DEB7A0911204B09113042091C8
S1130BF006023091070240910802509109020E94B6
S1130C0013149B01AC01012E1AE0569547953795B4
S1130C1027951A95D1F7102DA0910402B0910502E1
S1130C200E9413146B017C018AE090E00E9432144C
S1130C308AE090E00E9432148BE890E00E94A913AD
S1130C40B701A60181E00E94740520E030E0A9010B
S1130C5060E081E00E94DF024B015C0180910602AA
S1130C6090910702A0910802B09109028815990594
S1130C70AA05BB0508F080C01092240440900A0223
S1130C8050900B0260900C0270900D02440C551CA5
S1130C90661C771C440C551C661C771CC12CD12C7B
S1130CA07601812C912C54010F2EF2E12F2EF2E0CB
S1130CB03F2EF02D00911D0410911E04209104027A
S1130CC0309105024091140450911504609116046A
S1130CD070911704DB01CA01800F911FA11DB11D82
S1130CE089839A83AB83BC8340E050E0C301B201A3
S1130CF00E94DC1369817A818B819C81620F731F4E
S1130D00841F951F0E94FF12F101B701A601CA01B9
S1130D108C199D0901911191219131913F70012B01
S1130D20022B032B29F4AFEF8A1A9A0AAA0ABA0AE9
S1130D304F5F5F4F6F4F7F4F009106021091070284
S1130D4020910802309109020E5F1F4F2F4F3F4F31
S1130D50041715072607370729F0B4E0E231FB072B
S1130D60B1F603C08038910538F0E2E05E0E611CF4
S1130D70711C6A017B019ECF80912404811106C0FD
S1130D80A501940161E081E00E94DF0281E080938B
S1130D902404A0911204B0911304A50194010E94AB
S1130DA013149B01AC01012E1AE056954795379513
S1130DB027951A95D1F7102DA0910402B091050240
S1130DC00E9413146B017C018AE090E00E943214AB
S1130DD08CE790E00E94A913B701A60181E00E946C
S1130DE074058AE090E00E9432140F900F900F90E7
S1130DF00F90DF91CF911F910F91FF90EF90DF90B3
S1130E00CF90BF90AF909F908F907F906F905F90A6
S1130E104F903F902F900895CF92DF92EF92FF92E0
S1130E20CF93C82F6A017B0121E0D222EE24FF2454
S1130E30CD28CE28CF2861F4DB01CA01072E79E042
S1130E40B695A795979587957A95D1F7702D0EC08D
S1130E50DB01CA01072E79E0B695A795979587958A
S1130E607A95D1F7702D0196A11DB11D6C017D01FC
S1130E7027E0C222DD24EE24FF24CD28CE28CF286B
S1130E8059F46C017D01689412F8F694E794D794B0
S1130E90C7941694D1F70FC06C017D01689412F8C1
S1130EA0F694E794D794C7941694D1F78FEFC81AA1
S1130EB0D80AE80AF80A909124049923D1F020E092
S1130EC030E0A90160E081E00E94DF02C11107C0A7
S1130ED09B01AC012C0D3D1D4E1D5F1D06C09B01E9
S1130EE0AC012C193D094E095F0961E081E00E94C3
S1130EF0DF02CF91FF90EF90DF90CF9008952F9273
S1130F003F924F925F926F927F928F929F92AF9295
S1130F10BF92CF92DF92EF92FF920F931F93CF93E2
S1130F20DF93CDB7DEB766970FB6F894DEBF0FBE7A
S1130F30CDBF8E8378876F8380910A0290910B02D4
S1130F40A0910C02B0910D028E879F87A88BB98B5C
S1130F50A2E1B2E0AD87BC8B9B012F5F3F4F3B8B7F
S1130F602A8B6E857F85888999890E9445026B0149
S1130F707C018091120490911304892B09F496C189
S1130F80812C912CA12CB12C3E81315039834424E5
S1130F904394C986DA86EB86FC86CF80D8846A8837
S1130FA07B885C8889859A85AB85BC85880D991D6D
S1130FB0AA1DBB1D8A839B83AC83BD83BC01CD0169
S1130FC00E94FF128091040290910502892B09F47A
S1130FD05CC1A2E1B2E08C91811117C00AC0FE8A03
S1130FE0ED8AB0E2EB0EF11CF701B097808181111C
S1130FF018C08E818150823008F07AC184ED91E06E
S11310000E94A91380E090E078C10F2EF2E3EF2E46
S1131010F2E0FF2EF02D0D85152D212C312C1E8B89
S11310200D8B853E09F426C1ED89FE8983858F30B9
S113103009F420C1F981F23008F0D2C0AD89BE892B
S11310409C91F6018081981315C11196F301842DAA
S11310504D895E892D919191291304C08F5F8B3046
S1131060C9F709C05E8B4D8B8B3009F003C13A017F
S113107021018A0103C03A0121018A01FE81F13074
S113108009F041C08A819B81AC81BD818093250494
S113109090932604A0932704B0932804C201A0E0EF
S11310A0B0E08093F8019093F901A093FA01B09312
S11310B0FB01D80154968D919C915597A0E0B0E026
S11310C0DC0199278827F801428D538D60E070E098
S11310D0842B952BA62BB72B80931F04909320046D
S11310E0A0932104B0932204848D958DA68DB78D91
S11310F08093000290930102A0930202B093030232
S1131100862D972DFAC08AE090E00E94321489EC73
S113111091E00E94A9138AE090E00E9432148AE0D0
S113112090E00E943214D80154968D909C9055976B
S1131130A12CB12C5401992488245A968D919C9108
S11311405B97A0E0B0E0882A992AAA2ABB2A85EEF8
S1131150F80180836A817B818C819D810E942E139A
S1131160D8015C964D915D916D917C915F9780E083
S11311700E940C0720E030E0A90160E082E00E94B8
S1131180DF0286169706A806B90630F4A501940175
S113119061E082E00E94DF0200E010E0980140E09C
S11311A0C501B4010E9466026B017C0100E010E0FD
S11311B0980141E0C501B4010E946602B7EFCB1665
S11311C0BFEFDB06EB06BFE0FB0618F44601570150
S11311D0E3CF8BEB91E00E94A91380E090E08DC0F7
S11311E08AE090E00E943214142D00E002C00F5FE8
S11311F01F5F083059F480E20E94A113ED89FE8933
S1131200E00FF11D80810E94A113F1CFED89FE89C9
S1131210E00FF11D80810E94A1131B3040F387EB86
S113122091E00E94A913AD89BE891B968C918031EF
S1131230A1F08830C1F082EB91E00E94A9138EEAFC
S113124091E00E94A913ED89FE89448D558D668D28
S1131250778D80E00E9474050DC02AEA31E0822F68
S1131260D9019B2F05C0E5EAF1E08E2FDF019B2F0A
S11312700E94A913B0E22B0E311C809104029091BC
S113128005022816390608F4AACEEFEF8E1A9E0A34
S1131290AE0ABE0A8091120490911304A0E0B0E05B
S11312A088169906AA06BB0608F47CCE00E010E076
S11312B020E030E040E06E857F85888999890E942E
S11312C066026E877F87888B998B673FFFEF7F0766
S11312D08F07FFE09F0778F4672B682B692B09F0D1
S11312E040CE8CE891E00E94A91380E090E005C014
S11312F080E090E002C080E090E066960FB6F8943B
S1131300DEBF0FBECDBFDF91CF911F910F91FF9034
S1131310EF90DF90CF90BF90AF909F908F907F9091
S11313206F905F904F903F902F9008953F924F920F
S11313305F926F927F928F929F92AF92BF92CF9261
S1131340DF92EF92FF920F931F93CF93DF93CDB76A
S1131350DEB72C970FB6F894DEBF0FBECDBF182FA3
S11313607B01CB010E944A048111A8C0B70181E02E
S11313700E947F07009709F4A3C0113009F4A2C0AA
S1131380DC0154964D905C905597612C712C320180
S1131390552444245A964D915C915B9760E070E02B
S11313A093018201042B152B262B372B09871A87CF
S11313B02B873C875C964D905D906D907C905F97F9
S11313C08AE090E00E9432148AE090E00E94321495
S11313D019821A821B821C82312C69857A858B853D
S11313E09C850E9445026D837E838F8398878091BC
S11313F0120490911304892B09F447C0132D6D81B5
S11314007E818F819885610F711D811D911D0E94C0
S1131410FF1289809A80AB80BC8022E0920EA11CCE
S1131420B11CC980DA80EB80FC80F60189819A8145
S1131430E81BF90BEE5EFD4F80810E94A113B701FA
S1131440A6014F5F5F4F6F4F7F4FC414D504E6046E
S1131450F704D0F5481559056A057B0519F06A01AA
S11314607B01E3CF1F5F8091120490911304212F1D
S113147030E02817390728F449835A836B837C8327
S1131480BECF49835A836B837C8300E010E09801CC
S1131490432D69857A858B859C850E9466026987C0
S11314A07A878B879C87672B682B692B09F095CFEC
S11314B083E791E00E94A91380E007C082E005C0A1
S11314C080E003C081E001C080E02C960FB6F89460
S11314D0DEBF0FBECDBFDF91CF911F910F91FF9063
S11314E0EF90DF90CF90BF90AF909F908F907F90C0
S11314F06F905F904F903F900895CF93DF93EC01EE
S11315000E944A04811104C0BE0182E00E947F0748
S1131510DF91CF9108952F923F924F925F926F92F5
S11315207F928F929F92AF92BF92CF92DF92EF926F
S1131530FF920F931F93CF93DF93CDB7DEB76097DE
S11315400FB6F894DEBF0FBECDBF8F839B87682F85
S1131550792F81E00E949609813009F053C086E317
S113156091E00E94A913C0901F04D0902004E09041
S11315702104F0902204812C912C540100E010E00D
S1131580980140E0C701B6010E9466026F3F2FEF49
S1131590720782072FE0920741F03FEF831A930A04
S11315A0A30AB30A6B017C01E9CFA0911204B091A4
S11315B013042091040230910502E0910402F09199
S11315C005020E9404149B01AC01C501B4010E94F0
S11315D0CC1300910002109101022091020230917B
S11315E0030248015901861A970AA80AB90AC501D3
S11315F0B4019F0140E050E00E94DC13B22E21E0D0
S11316002C874DC0823009F444C38AE090E00E94E4
S1131610321485E291E00E94A91320E030E0A90190
S113162060E082E00E94DF0200910602109107024E
S11316302091080230910902061717072807390775
S113164040F460910A0270910B0280910C02909117
S11316500D020E94CF046B017C01611571058105A7
S1131660910549F48AE090E00E94321483E191E00C
S11316700E94A9130EC30FEF1FEF2FEF3FE041E0CD
S11316800E946602FE86ED86D88ACF8610920002FA
S11316901092010210920202109203021C868C85A1
S11316A0612C712C2B2D30E040E050E02A833B83E9
S11316B04C835D83BE8288248394B72C8982912CC9
S11316C0A12C882389F1C701B6010E9445022A8111
S11316D03B814C815D81260F371F481F591F209382
S11316E00E0230930F024093100250931102609146
S11316F00E0270910F0280911002909111020E94CB
S1131700FF12209104023091050240E050E0609104
S113171000027091010280910202909103020E94E2
S1131720DC131B014E800FC0C701B6010E944502A5
S113173060930E0270930F02809310029093110233
S1131740212C312C472C8AE090E00E94321489EF3E
S113175090E00E94A913162D1130F9F48AE00E943A
S1131760A113F101EE5EFD4F8AE0808380910002B7
S113177090910102A0910202B09103020196A11D71
S1131780B11D8093000290930102A0930202B093D2
S11317900302A1014F5F5F4F1A010E949913582E53
S11317A058E0851324C02114310409F45CC288E094
S11317B00E94A11380E20E94A11388E00E94A11359
S11317C081E0281A31088091000290910102A091D1
S11317D00202B09103020197A109B10980930002AA
S11317E090930102A0930202B09303023CC20E94B0
S11317F0A11381010F5F1F4FF101EE5EFD4F508277
S11318008091000290910102A0910202B091030222
S11318100196A11DB11D8093000290930102A09333
S11318200202B09303029DE0591221C00115A2E007
S11318301A0719F18AE00E94A113F801EE5EFD4F28
S11318408AE080838091000290910102A0910202BB
S1131850B09103020196A11DB11D809300029093E3
S11318600102A0930202B09303020F5F1F4F011500
S1131870B2E01B0768F11B2D01C0198160910E02B3
S113188070910F0280911002909111020E942E1308
S113189043948091120490911304242D30E028176E
S11318A03907E1F080910E0290910F02A09110028D
S11318B0B09111020196A11DB11D80930E02909367
S11318C00F02A0931002B0931102292C3A2C02C0EB
S11318D018011B2DEEE75E123FCF05C0612EFEE717
S11318E05F123AC0C2C18091000290910102A0919E
S11318F00202B09103020197A109B1098093000289
S113190090930102A0930202B0930302910121502B
S11319103109211542E0340750F4F901EE5EFD4F20
S113192010822F5F3F4F211552E03507B1F76091C8
S11319300E0270910F0280911002909111020E9488
S11319402E13A701960161E082E00E94DF028C84DD
S1131950882009F46BC028C0C701B6010E94CF04D7
S11319601B012C01611571058105910549F48AE07B
S113197090E00E94321487EE90E00E94A91389C17E
S11319808B019C01482DC701B6010E9466020FEF2E
S11319901FEF2FEF3FE0482DC201B1010E94660204
S11319A0872D720161018DCE60912504709126040A
S11319B080912704909128040E94FF12E091F8017D
S11319C0F091F901EE5EFD4F8091000290910102C9
S11319D0A0910202B0910302448D558D668D778DDE
S11319E06C017D01C41AD50AE60AF70A848F958F23
S11319F0A68FB78F609125047091260480912704E7
S1131A00909128040E942E13B701A60181E00E9440
S1131A100C078AE090E00E94321487ED90E00E9467
S1131A20A9138AE090E00E94321433C180900A0224
S1131A3090900B02A0900C02B0900D02312C0F2E4E
S1131A40F4E84F2EF6E95F2EF02D0F2EF7E36F2EFC
S1131A50FAE37F2EF02D1F812B8439828A829B82A8
S1131A60AC82BD82AF84B888912E822C2D843E84B2
S1131A706A817B818C819D810E9445026F83788776
S1131A8089879A878091120490911304892B09F411
S1131A9098C01E8200E21BE0CF80D884E984FA84D7
S1131AA02E81C20ED11CE11CF11CC701B6010E949B
S1131AB0FF128091040290910502892B09F471C0F0
S1131AC03981332369F007C08D859E858E5E9D4FD5
S1131AD0222351F002C082E192E0DC011C92D9C0C1
S1131AE082E192E01D861E86DC012C91222319F0EE
S1131AF0253E09F047C0E92DF82DDC01212F4D8545
S1131B005E8531913D932150E1F75E874D87FC015D
S1131B1003871486158657864686718A608A738A77
S1131B20628A578A468A718E608E358A248AB38E79
S1131B30A28E4091000250910102609102027091C4
S1131B400302448F558F668F778FC701B6010E94B9
S1131B502E138AE090E00E9432148AE090E00E9402
S1131B60321488EC90E00E94A91340910002509135
S1131B700102609102027091030281E00E940C074D
S1131B8021E001C02981ED85FE85B096FE87ED87B1
S1131B908091040290910502E817F90708F494CFA4
S1131BA001C02981FE81FF5FFE8380911204909120
S1131BB013044F2F50E04817590710F429836CCFB2
S1131BC0298300E010E0980140E06A817B818C81E8
S1131BD09D810E946602673F2FEF720782072FE004
S1131BE0920778F16F3F7F4F8F4F9F4029F56A81AD
S1131BF07B818C819D810E94CF04E62EF72EC82E16
S1131C00D92E062F172F282F392F41E06A817B8187
S1131C108C819D810E9466020FEF1FEF2FEF3FE042
S1131C2041E06E2D7F2D8C2D9D2D0E946602EA824F
S1131C30FB82CC82DD8209C083EB90E00E94A91371
S1131C4028C06A837B838C839D838A819B81AC813A
S1131C50BD81892B8A2B8B2B09F00ACF8AE990E06E
S1131C600E94A91316C01B2D77CD8091000290917C
S1131C700102A0910202B09103020197A109B109E6
S1131C808093000290930102A0930202B093030296
S1131C904ECE60960FB6F894DEBF0FBECDBFDF9177
S1131CA0CF911F910F91FF90EF90DF90CF90BF9055
S1131CB0AF909F908F907F906F905F904F903F90E8
S1131CC02F900895E0ECF0E0908195FFFDCF809394
S1131CD0C60080E090E00895E0ECF0E08081882385
S1131CE0ECF78091C60090E008951092C00088E15E
S1131CF08093C10086E08093C20088E08093C40092
S1131D001092C50080E091E090932C0480932B0402
S1131D1090932A048093290408958FEE85B98FEB5C
S1131D2084B918B817B81BB85D9A8EEF8AB90895AC
S1131D30F8940E948D0E0E9478130E948B130895CC
S1131D40CF93DF93CDB7DEB72D970FB6F894DEBFF0
S1131D500FBECDBF0E94750E82E291E09F938F93D8
S1131D600E941E1487E491E09F938F930E941E1497
S1131D702FEF31EE84E0215030408040E1F700C085
S1131D80000082E591E09F938F930E941E140E94AD
S1131D90980E8CE491E09F938F930E941E148AE026
S1131DA090E00E9432148AE090E00E94321400E72E
S1131DB011E01F930F930E941E148AE090E00E948A
S1131DC032148EE991E09F938F930E941E148AE04F
S1131DD090E00E9432141F930F930E941E148AE015
S1131DE090E00E943214109223040FB6F894DEBFE0
S1131DF00FBECDBF0AE010E00E942A12882309F426
S1131E00AAC20150110901151105B1F7B0C283EC42
S1131E1091E09F938F930E941E140F900F9002C025
S1131E20823009F009C08AED91E09F938F930E945C
S1131E301E140F900F90F6CFFFCF81E294E00E9422
S1131E40A9130EC084E094E00E94A91309C089ED8F
S1131E5093E00E94A91304C08FEB93E00E94A9139E
S1131E6080E58CBD8DB581608DBD8FE99FE00197C4
S1131E70F1F700C000000E947203882351F08AE049
S1131E8090E00E9432148EEA93E00E94A913712C10
S1131E9002C077247394C12CD12C7601C3945E01C3
S1131EA09EE0A90EB11C612C8AE090E00E943214DD
S1131EB08DE993E00E94A9138AE090E00E94321415
S1131EC00E9499138AE090E00E9432148AE893E019
S1131ED00E94A9138AE090E00E94321481E793E003
S1131EE00E94A9138AE090E00E94321489E593E0ED
S1131EF00E94A9138AE090E00E94321485E493E0E2
S1131F000E94A9138AE090E00E94321485E393E0D2
S1131F100E94A9138AE090E00E94321484E293E0C4
S1131F200E94A9138AE090E00E94321482E193E0B7
S1131F300E94A9138AE090E00E94321487EE92E096
S1131F400E94A9138AE090E00E9432148AE090E093
S1131F500E9432148FEC92E00E94A9130E949913FC
S1131F60882E0E94A1138BEC880D853078F47110B3
S1131F700DC08AE090E00E9432148AE090E00E9452
S1131F80321487EB92E00E94A9138ECF80ED880D66
S1131F90853008F092C08AE090E00E9432148AE012
S1131FA090E00E94321483E992E00E94A9130E94F7
S1131FB09913182F0E94A1131F70E8EEF3E01E9FDF
S1131FC0C0011F9F900D1124AA2797FDA095BA2F39
S1131FD080930E0290930F02A0931002B09311020B
S1131FE00E949913182F0E94A11340910E02509140
S1131FF00F0260911002709111021F70F4E6F19FBC
S1132000C0011124AA2797FDA095BA2F840F951F0C
S1132010A61FB71F80930E0290930F02A093100285
S1132020B09311020E949913182F0E94A1132090BB
S11320300E0230900F0240901002509011021F7057
S1132040212F30E0B901660F771FA901440F551FF6
S1132050440F551F440F551FCB01840F951FAA270A
S113206097FDA095BA2F820D931DA41DB51D8093D5
S11320700E0290930F02A0931002B09311020E94DB
S11320809913182F0E94A11380910E0290910F02B0
S1132090A0911002B09111021F70810F911DA11D1A
S11320A0B11D80930E0290930F02A0931002B0937F
S11320B011028AE090E00E943214C0921904D09276
S11320C01A04E0921B04F0921C04882D90E0FC0199
S11320D0F097EA30F10508F029C1EC5CFF4F0C944D
S11320E0FE132091190430911A0440911B0450915D
S11320F01C0460910E0270910F0280911002909165
S113210011020E94CD12182F8AE090E00E9432142E
S1132110112329F084E892E00E94A91317C18CE7E7
S113212092E00E94A91312C18AE090E00E94321446
S113213082E692E00E94A913062D10E001C08401FA
S11321400E949913282E0E94A11348012FEF821A8E
S1132150920AF801EE5EFD4F20823DE0231210C08A
S11321608AE00E94A1130E5F1F4FF401EE5EFD4F43
S11321708AE08083011582E0180749F04801DFCF27
S1132180811492E0990619F0EEE72E12D8CF6091EF
S11321900E0270910F0280911002909111020E9420
S11321A02E13182F8AE090E00E9432148AE090E007
S11321B00E943214112329F083E592E00E94A913AE
S11321C0C5C081E492E00E94A913C0C060910E02D0
S11321D070910F0280911002909111020E94FF12DF
S11321E0182F8AE090E00E943214111107C0E2E136
S11321F0F2E080818E3709F0BEC017C083E392E01D
S11322000E94A913A3C0F801EE5EFD4F80818E37B2
S113221061F0F801EE5EFD4F80810E94A1130F5F13
S11322201F4F0115F2E01F0771F78AE090E00E944A
S113223032148AE090E00E94321482E292E00E941A
S1132240A91384C08AE090E00E943214662D70E0E5
S113225080E00E947F077AC08AE090E00E943214F6
S11322608AE090E00E94321480E192E00E94A91377
S1132270FE0131961192EA15FB05E1F7462C512C2B
S113228001C02C010E949913182F8D3051F1883010
S113229081F441145104B1F388E00E94A11380E257
S11322A00E94A11388E00E94A11321E0421A510860
S11322B0E9CF80EE810F8F3528F7812F0E94A1137B
S11322C0C2010196E1E0F0E0EC0FFD1FE40DF51D05
S11322D010838D309105A9F68AEF91E00E94A9132D
S11322E035C03DE04316510488F58AE090E00E9431
S11322F0321486E3881207C0BE016F5F7F4F80E00F
S11323000E94960923C097E3891205C0CE01019665
S11323100E948B0A1BC0E8E38E1218C0CE010196FE
S11323200E947D0A13C00E94DD0510C08AE090E07F
S11323300E9432148AE090E00E94321489EE91E007
S11323400E94A9138AE090E00E9432148AE090E08F
S11323500E943214A9CD80912304823009F472CDF5
S1132360833009F474CD813009F076CD66CD8130A7
S113237009F056CD4CCDE2E1F2E080810E94A11338
S113238001E010E040CFCF92DF92EF92FF92CF9323
S1132390C82F6A017B0180911804811115C08FEE4A
S11323A08C0F823040F088EE8C0F823020F080EE6B
S11323B08C0F823048F40B2EB9E0CC0CDD1CEE1CE3
S11323C0FF1CBA95D1F7B02D5D988C2F80640E94C4
S11323D07E138F2D0E947E138E2D0E947E138D2DD1
S11323E00E947E138C2D0E947E13C83021F487E84E
S11323F00E947E1307C085E90E947E1303C0FA94ED
S113240011F41BC0F12C0E9484138F3FC1F3F82EEA
S1132410811115C0CA33A1F40E94841386FF04C03D
S113242081E08093180402C0109218040E9484135F
S11324300E9484130E94841303C0F82E01C0F82E56
S11324400E9484135D9A8F2DCF91FF90EF90DF90BF
S1132450CF9008950F931F93CF93DF931AE08FEFDC
S11324600E947E131150D9F75D9840E050E0BA0104
S113247080E00E94C311C0E2D0E00AC040E050E016
S1132480BA0180E00E94C3112197209709F474C017
S11324908130A1F75D9A8FEF0E947E138FEF0E9427
S11324A07E134AEA51E060E070E088E00E94C311C4
S11324B0CEEFD0E013C04AEA51E060E070E088E07B
S11324C00E94C3112197209749F48AE090E00E946A
S11324D0321481E08093230401E003C0813059F772
S11324E002E040E050E0BA0187E30E94C31140E0FB
S11324F050E060E070E489E20E94C311CEEFD0E0C6
S113250016C040E050E0BA0187E30E94C31140E0E6
S113251050E060E070E489E20E94C31121972097A3
S113252031F48AE090E00E94321412E030C081114C
S1132530E8CF10921804023051F520C040E050E07A
S1132540BA018AE30E94C3112197209739F48AE0E3
S113255090E00E9432141092230402C08111EECF45
S113256080911804813021F482E0809323040FC009
S113257083E0809323040BC011E009C040E050E0E5
S1132580BA018AE30E94C311CEEFD0E0E7CF812FD6
S1132590DF91CF911F910F9108958F929F92AF92E7
S11325A0BF92CF92DF92EF92FF926B017C014901BF
S11325B05A01AB01BC0180E20E94C311811116C013
S11325C081E0881A9108A108B108B501A4014C0D55
S11325D05D1D6E1D7F1D81E20E94C311811106C025
S11325E040E050E0BA0186E20E94C311FF90EF90F0
S11325F0DF90CF90BF90AF909F908F900895CF932E
S1132600DF93AB01BC0181E10E94C311811123C09E
S11326105D98C0E0D0E006C02197209719F45D9A38
S113262081E019C00E9484138E3FB1F7C0E0D0E06E
S11326300E948413FE01EE5EFD4F80832196C11536
S113264082E0D807A9F70E9484130E9484130E9491
S113265084135D9A80E0DF91CF910895CF93DF9347
S1132660AB01BC0188E10E94C31181113EC05D9899
S11326708EEF0E947E13C0E0D0E0FE01EE5EFD4FBF
S113268080810E947E132196C11522E0D207A9F70A
S11326908FEF0E947E138FEF0E947E130E9484139B
S11326A0982F9F71953039F05D9A1FC0219629F4B7
S11326B05D9A81E01AC0C0E0D0E00E9484138823B0
S11326C0A9F35D9A8FEF0E947E135D9808C0CE0136
S11326D00196219619F45D9A81E007C0EC010E94ED
S11326E084138823A1F35D9A80E0DF91CF9108954C
S11326F080E58CBD8DB581608DBD08958EBD0DB412
S113270007FEFDCF8EB508958FEF8EBD0DB407FE85
S1132710FDCF8EB508951092C00088E18093C1006A
S113272086E08093C20088E08093C4001092C500C4
S11327300895E0ECF0E080818823ECF78091C600F6
S11327400895E0ECF0E080818823ECF78091C600E6
S11327500895CF93DF93EC01FE012491222351F0DD
S11327602196FC0184910E94A113CE01FE012491C3
S11327702111F6CFDF91CF910895CF93DF93EC0130
S11327808881882331F021960E94A11389918111B7
S1132790FBCFDF91CF910895DB018F939F930E942C
S11327A01314BF91AF91A29F800D911DA39F900D13
S11327B0B29F900D11240895A1E21A2EAA1BBB1BEF
S11327C0FD010DC0AA1FBB1FEE1FFF1FA217B307F9
S11327D0E407F50720F0A21BB30BE40BF50B661F0F
S11327E0771F881F991F1A9469F7609570958095D3
S11327F090959B01AC01BD01CF010895EE0FFF1F21
S11328000590F491E02D0994A29FB001B39FC001FB
S1132810A39F700D811D1124911DB29F700D811D08
S11328201124911D08950E940414A59F900DB49F36
S1132830900DA49F800D911D11240895A0E0B0E097
S1132840E4E2F4E10C94C116FE01359661917191B4
S1132850AF0180912B0490912C040E943914E2E082
S11328600C94DD1660912B0470912C040E942116A7
S11328700895ACE0B0E0EFE3F4E10C94B1167C0110
S11328806B018A01FC0117821682838181FFBDC11D
S1132890CE0101964C01F7019381F60193FD8591D8
S11328A093FF81916F01882309F4ABC1853239F418
S11328B093FD859193FF81916F01853229F4B701CE
S11328C090E00E942116E7CF512C312C20E02032D9
S11328D0A0F48B3269F030F4803259F0833269F419
S11328E020612CC08D3239F0803339F4216026C048
S11328F02260246023C0286021C027FD27C030ED5A
S1132900380F3A3078F426FF06C0FAE05F9E300DA7
S11329101124532E13C08AE0389E300D1124332E17
S113292020620CC08E3221F426FD6BC1206406C0E7
S11329308C3611F4206802C0883641F4F60193FD08
S1132940859193FF81916F018111C1CF982F9F7D54
S11329509554933028F40C5F1F4FFFE3F9830DC0A7
S1132960833631F0833771F0833509F05BC022C0C0
S1132970F801808189830E5F1F4F44244394512CB6
S1132980540115C03801F2E06F0E711CF801A080EB
S1132990B18026FF03C0652D70E002C06FEF7FEFAA
S11329A0C5012C870E9416162C0183012C852F77D4
S11329B0222E17C03801F2E06F0E711CF801A080BE
S11329C0B18026FF03C0652D70E002C06FEF7FEF7A
S11329D0C5012C870E940B162C012C852068222E01
S11329E0830123FC1BC0832D90E048165906B0F4E4
S11329F0B70180E290E00E9421163A94F4CFF501E9
S1132A0027FC859127FE81915F01B70190E00E9428
S1132A10211631103A94F1E04F1A5108411451042F
S1132A2071F7E5C0843611F0893639F5F80127FFCE
S1132A3007C060817181828193810C5F1F4F08C040
S1132A4060817181882777FD8095982F0E5F1F4FD5
S1132A502F76B22E97FF09C0909580957095619559
S1132A607F4F8F4F9F4F2068B22E2AE030E0A401A1
S1132A700E945316A82EA81844C0853729F42F7E27
S1132A80B22E2AE030E025C0F22FF97FBF2E8F3618
S1132A90C1F018F4883579F0B4C0803719F088375C
S1132AA021F0AFC02F2F2061B22EB4FE0DC08B2DAC
S1132AB08460B82E09C024FF0AC09F2F9660B92EE7
S1132AC006C028E030E005C020E130E002C020E18B
S1132AD032E0F801B7FE07C0608171818281938181
S1132AE00C5F1F4F06C06081718180E090E00E5F33
S1132AF01F4FA4010E945316A82EA818FB2DFF7780
S1132B00BF2EB6FE0BC02B2D2E7FA51450F4B4FEA1
S1132B100AC0B2FC08C02B2D2E7E05C07A2C2B2DAA
S1132B2003C07A2C01C0752C24FF0DC0FE01EA0DF0
S1132B30F11D8081803311F4297E09C022FF06C073
S1132B407394739404C0822F867809F0739423FDE0
S1132B5013C020FF06C05A2C731418F4530C5718D2
S1132B60732C731468F4B70180E290E02C870E9400
S1132B70211673942C85F5CF731410F4371801C003
S1132B80312C24FF12C0B70180E390E02C870E940F
S1132B9021162C8522FF17C021FF03C088E590E091
S1132BA002C088E790E0B7010CC0822F867859F004
S1132BB021FD02C080E201C08BE227FD8DE2B70156
S1132BC090E00E942116A51438F4B70180E390E048
S1132BD00E9421165A94F7CFAA94F401EA0DF11D2C
S1132BE08081B70190E00E942116A110F5CF332017
S1132BF009F451CEB70180E290E00E9421163A9484
S1132C00F6CFF7018681978102C08FEF9FEF2C9654
S1132C10E2E10C94CD16FC01059061507040011066
S1132C20D8F7809590958E0F9F1F0895FC016150F1
S1132C30704001900110D8F7809590958E0F9F1FDA
S1132C4008950F931F93CF93DF93182F092FEB0150
S1132C508B8181FD03C08FEF9FEF20C082FF10C0E6
S1132C604E815F812C813D81421753077CF4E881BA
S1132C70F9819F012F5F3F4F39832883108306C05A
S1132C80E885F985812F0995892B29F72E813F81C4
S1132C902F5F3F4F3F832E83812F902FDF91CF9162
S1132CA01F910F910895FA01AA27283051F120317C
S1132CB081F1E8946F936E7F6E5F7F4F8F4F9F4FCC
S1132CC0AF4FB1E03ED0B4E03CD0670F781F891F0E
S1132CD09A1FA11D680F791F8A1F911DA11D6A0FDC
S1132CE0711D811D911DA11D20D009F468943F918F
S1132CF02AE0269F11243019305D3193DEF6CF018E
S1132D000895462F4770405D4193B3E00FD0C9F753
S1132D10F6CF462F4F70405D4A3318F0495D31FDC0
S1132D204052419302D0A9F7EACFB4E0A695979513
S1132D30879577956795BA95C9F7009761057105E9
S1132D4008959B01AC010A2E069457954795379533
S1132D502795BA95C9F7620F731F841F951FA01D8D
S1132D6008952F923F924F925F926F927F928F922B
S1132D709F92AF92BF92CF92DF92EF92FF920F9306
S1132D801F93CF93DF93CDB7DEB7CA1BDB0B0FB610
S1132D90F894DEBF0FBECDBF09942A8839884888CD
S1132DA05F846E847D848C849B84AA84B984C88463
S1132DB0DF80EE80FD800C811B81AA81B981CE0F5A
S1132DC0D11D0FB6F894DEBF0FBECDBFED0108953F
S1072DD0F894FFCFA1
S1132DD40000000300000000620E6C0E00002020BE
S1132DE420202020202020202020202042797465C7
S1132DF473000A49276D2061626F757420746F2013
S1132E04696E697420736F6D65207661726961629D
S1132E146C65732E2E2E00696E697420646F6E6562
S1132E242E000A54696D6520746F20696E697420DC
S1132E34736F6D6520646576696365732E2E2E0049
S1132E442A2A2A2A2A2A2A2A2A2A2A2A2A2A2A2ADA
S1132E542A2A2A2A2A2A2A2A2A2A2A2A2A2A2A2ACA
S1132E642A2A2A2A2A2A2A2A2A2A2A2A2A002020F8
S1132E74202020202020202020206D6963726F539D
S1132E844420436172642054657374696E672E2E02
S1132E9420200053442063617264206E6F742064A4
S1132EA4657465637465642E2E00436172642049FD
S1132EB46E697469616C697A6174696F6E206661A4
S10B2EC4696C65642E2E000008
S9030000FC
