S00E00004156522D53442E7372656369
S11300000C9443000C9460000C9460000C94600009
S11300100C9460000C9460000C9460000C946000DC
S11300200C9460000C9460000C9460000C946000CC
S11300300C9460000C9460000C9460000C946000BC
S11300400C9460000C9460000C9460000C946000AC
S11300500C9460000C9460000C9460000C9460009C
S11300600C9460000C946000620F8D0FEB0FB310C2
S1130070B3102E10381038103810B010524F4F549F
S113008000444952000011241FBECFEFD8E0DEBF68
S1130090CDBF16E0A0E0B1E0E6EDFCE202C00590C1
S11300A00D92A837B107D9F728E0A8E7B6E001C058
S11300B01D92AF3AB207E1F70E942F0D0C94691616
S11300C00C940000CF92DF92EF92FF92A0919208DD
S11300D0B0919308C0907C06D0907D06E0907E0697
S11300E0F0907F069B01AC0122503109410951096E
S11300F00E9467136C0D7D1D8E1D9F1DFF90EF9058
S1130100DF90CF9008954F925F926F927F928F927B
S11301109F92AF92BF92CF92DF92EF92FF920F9392
S11301201F93CF93DF93C42F2801390140919D0879
S113013050919E084B015C01880C991CAA1CBB1CA5
S1130140880C991CAA1CBB1C20918406309185063E
S1130150C0909408D0909508E0909608F090970885
S1130160C40ED51EE11CF11C40E050E0C501B401F1
S11301700E943013C20ED31EE41EF51E2091840685
S11301803091850640E050E0C501B4010E9430136F
S11301904B015C01DAE0C701B6010E9455128823C5
S11301A011F0D150C1F7F401EE56F94FC11108C056
S11301B080819181A281B381BC01CD019F700BC06C
S11301C04082518262827382C701B6010E94841206
S11301D060E070E0CB01DF91CF911F910F91FF9010
S11301E0EF90DF90CF90BF90AF909F908F907F90D3
S11301F06F905F904F900895CF92DF92EF92FF92AD
S1130200CF93DF93D82FC62F69017A018091940888
S113021090919508A0919608B0919708BC01CD01E2
S11302206F5F7F4F8F4F9F4F0E94551240919206F0
S1130230509193066091940670919506423552450B
S11302406146714409F059C040917608509177088D
S11302506091780870917908423752476144714639
S113026009F04FC040918E0850918F08609190081A
S1130270709191084115510565457A4A09F045C0C8
S1130280C11114C0D13049F460917A0870917B088F
S113029080917C0890917D083BC060917E087091AC
S11302A07F08809180089091810832C0D13049F450
S11302B0C0927A08D0927B08E0927C08F0927D0884
S11302C008C0C0927E08D0927F08E0928008F09225
S11302D081088091940890919508A0919608B09116
S11302E09708BC01CD016F5F7F4F8F4F9F4F0E94D6
S11302F084126FEF7FEFCB010BC06FEF7FEFCB0169
S113030007C06FEF7FEFCB0103C06FEF7FEFCB012F
S1130310DF91CF91FF90EF90DF90CF900895CF922F
S1130320DF92EF92FF920F931F93CF93DF9310927C
S1130330940810929508109296081092970860E01D
S113034070E0CB010E945512809192068D7F893E08
S113035001F1809190089091910885359A4A09F0AD
S1130360AAC0609158087091590880915A089091D8
S11303705B08609394087093950880939608909313
S113038097080E945512809192068D7F893E09F04C
S113039094C080919D0690919E06909385068093CB
S11303A0840680919F0690E090939308809392082E
S11303B0E091A006F091A106F0939E08E0939D08B9
S11303C08091BE069091BF06A091C006B091C1066F
S11303D080938A0690938B06A0938C06B0938D0627
S11303E0C0919D08D0919E08A091A2062091B606C6
S11303F03091B7064091B8065091B906B0E00E941A
S113040067130091AE061091AF062091B0063091AB
S1130410B1060C0F1D1F211D311D060F171F281FAC
S1130420391F00937C0610937D0620937E0630933B
S11304307F0640919208509193080091B206109162
S1130440B3062091B4063091B5060E1B1F0B21098B
S1130450310968017901C61AD70AE80AF90AC701FD
S1130460B6019A0140E050E00E94301320938606C2
S113047030938706409388065093890620E030E045
S1130480A90160E081E00E94FC00009186061091C1
S113049087062091880630918906061717072807D2
S11304A0390720F41092A40880E008C081E080930A
S11304B0A40880E003C081E001C081E0DF91CF9116
S11304C01F910F91FF90EF90DF90CF900895CF93FD
S11304D0DF93CDB7DEB72B970FB6F894DEBF0FBE10
S11304E0CDBFFC0120812E3271F0319631E0219193
S11304F02E3221F03F5F3C30D1F709C0393038F457
S113050031110FC001C030E0232F40E218C08EE04B
S113051091E09F938F930E9472130F900F9081E04C
S113052056C0482FDE011196E82FF92F21912D9303
S11305302E2F241B2317D0F3383030F30AC0E1E008
S1130540F0E0EC0FFD1FE20FF11D40832F5F283018
S1130550B0F33F5F28E0FC01E30FF11D408141113E
S113056003C02B3050F017C03F5FE1E0F0E0EC0F28
S1130570FD1FE20FF11D40830EC040E231E0320F57
S1130580E1E0F0E0EC0FFD1FE20FF11D40833B3092
S113059029F0232FF3CF2F5F2B30E8F29E01245F45
S11305A03F4FFE01319640815FE9540F5A3110F4F8
S11305B0405240833196E217F307A9F7DC01FE01AC
S11305C0319681918D932E173F07D9F780E02B96B2
S11305D00FB6F894DEBF0FBECDBFDF91CF91089563
S11305E04F925F926F927F928F929F92AF92BF923F
S11305F0CF92DF92EF92FF921F93CF93DF936B0121
S11306007C0120E8C2228091860690918706A09101
S11306108806B0918906C816D906EA06FB0608F0D2
S11306206DC046015701880C991CAA1CBB1C880C80
S1130630991CAA1CBB1CC2E9D6E011E080919D085C
S113064090919E08209184063091850640909408EC
S1130650509095086090960870909708480E591E1F
S1130660611C711C40E050E0C501B4010E943013CC
S1130670C301B201620F731F841F951F0E9455129C
S113068088819981AA81BB81BF70892B8A2B8B2B8E
S113069099F0212FE22FF0E0EE0FFF1FEE0FFF1F66
S11306A0EE56F94F80819181A281B381BF70892B6D
S11306B08A2B8B2B49F401C020E0C701B601620FDD
S11306C0711D811D911D21C02F5F22F780E8C80E86
S11306D0D11CE11CF11C8091860690918706A091A3
S11306E08806B091890622E0920EA11CB11CC8169E
S11306F0D906EA06FB0608F4A1CF04C060E070E066
S1130700CB0103C060E070E0CB01DF91CF911F917A
S1130710FF90EF90DF90CF90BF90AF909F908F901D
S11307207F906F905F904F9008959F92AF92BF9289
S1130730CF92DF92EF92FF920F931F93CF93DF93A9
S1130740CDB7DEB764970FB6F894DEBF0FBECDBF4A
S1130750982ECB01BA0124E1E1E2F1E0DE01119629
S113076001900D922A95E1F70F2EFCE0BF2EF02D9B
S11307700F2EFCE2AF2EF02D0F2EFAE0CF2ED12C4F
S1130780E12CF12CF02D25E0B21619F0E9E0BE12AF
S113079005C0FE01EB0DF11DA082BA948E010B0D74
S11307A0111DA70196010E9430136063F801608354
S11307B0622F732F842F952F611571058105910583
S11307C011F0BA9401F7F1E09F1202C08BE48E8716
S11307D0CE0101960E94111364960FB6F894DEBF01
S11307E00FBECDBFDF91CF911F910F91FF90EF907E
S11307F0DF90CF90BF90AF909F9008952F923F923B
S11308004F925F926F927F928F929F92AF92BF921C
S1130810CF92DF92EF92FF920F931F93CF93DF93C8
S113082000D000D0CDB7DEB7A0919208B091930864
S1130830209186063091870640918806509189065A
S11308400E9467136B017C010B2EBAE0F694E794C7
S1130850D794C794BA95D1F7B02D0091840610911E
S113086085068AE090E00E9486138AE090E00E9468
S1130870861385E391E09F938F930E947213D801AE
S1130880A70196010E946713AB01BC0181E00E949D
S1130890950320E030E0A90160E081E00E94FC00C3
S11308A04B015C018091860690918706A091880691
S11308B0B09189060F900F9088159905AA05BB057C
S11308C008F080C01092A40840908A0650908B06CD
S11308D060908C0670908D06440C551C661C771C29
S11308E0440C551C661C771CC12CD12C7601812C20
S11308F0912C54010F2EF2E92F2EF6E03F2EF02D0D
S113090000919D0810919E082091840630918506DF
S113091040919408509195086091960870919708B9
S1130920DB01CA01800F911FA11DB11D89839A8328
S1130930AB83BC8340E050E0C301B2010E9430139A
S113094069817A818B819C81620F731F841F951F3B
S11309500E945512F101B701A601CA018C199D0923
S113096001911191219131913F70012B022B032BA5
S113097029F4AFEF8A1A9A0AAA0ABA0A4F5F5F4F9C
S11309806F4F7F4F0091860610918706209188064D
S1130990309189060E5F1F4F2F4F3F4F04171507E5
S11309A02607370729F0B8E0E239FB07B1F603C0A0
S11309B08038910538F0E2E05E0E611C711C6A011A
S11309C07B019ECF8091A408811106C0A5019401EA
S11309D061E081E00E94FC0081E08093A408A09182
S11309E09208B0919308A50194010E9467136B01CA
S11309F07C010B2EBAE0F694E794D794C794BA9589
S1130A00D1F7B02D00918406109185068AE090E01C
S1130A100E94861384E491E09F938F930E94721343
S1130A20D801A70196010E946713AB01BC0181E0C4
S1130A300E9495038AE090E00E9486130F900F9025
S1130A400F900F900F900F90DF91CF911F910F9106
S1130A50FF90EF90DF90CF90BF90AF909F908F90DA
S1130A607F906F905F904F903F902F900895CF921A
S1130A70DF92EF92FF92CF93C82F6A017B0121E0AE
S1130A80D222EE24FF24CD28CE28CF2861F4DB0126
S1130A90CA01072E79E0B695A795979587957A951B
S1130AA0D1F7702D0EC0DB01CA01072E79E0B6958F
S1130AB0A795979587957A95D1F7702D0196A11DE5
S1130AC0B11D6C017D0127E0C222DD24EE24FF2448
S1130AD0CD28CE28CF2859F46C017D01689412F8F2
S1130AE0F694E794D794C7941694D1F70FC06C0189
S1130AF07D01689412F8F694E794D794C7941694F9
S1130B00D1F78FEFC81AD80AE80AF80A9091A40816
S1130B109923D1F020E030E0A90160E081E00E9457
S1130B20FC00C11107C09B01AC012C0D3D1D4E1DE5
S1130B305F1D06C09B01AC012C193D094E095F09DC
S1130B4061E081E00E94FC00CF91FF90EF90DF9084
S1130B50CF9008952F923F924F925F926F927F921F
S1130B608F929F92AF92BF92CF92DF92EF92FF92B9
S1130B700F931F93CF93DF93CDB7DEB768970FB66C
S1130B80F894DEBF0FBECDBF8C877B876A87209128
S1130B908A0630918B0640918C0650918D06298BE4
S1130BA03A8B4B8B5C8B0F2EF1E8EF2EF1E0FF2E8E
S1130BB0F02DAB014F5F5F4F5E8B4D8B69897A8956
S1130BC08B899C890E9462006D877E878F87988BB2
S1130BD08091920890919308892B09F4BAC1812CD1
S1130BE0912CA12CB12C0F2EF2E94F2EF6E05F2EA2
S1130BF0F02D5C85515059838A829B82AC82BD82E0
S1130C008D889E888A819B81AC81BD812D853E859E
S1130C104F855889820F931FA41FB51F8E839F830E
S1130C20A887B987BC01CD010E9455128091840622
S1130C3090918506892B09F474C1D2018C9181119C
S1130C401BC00AC0D88ECF8AB0E2CB0ED11CF601ED
S1130C50B097808181111FC08C858150823008F04B
S1130C609EC183E591E09F938F930E9472130F902E
S1130C700F9080E090E098C10F2EF2EBCF2EF6E0BB
S1130C80DF2EF02D612C712CAA24A394B12C588E44
S1130C904F8A2A843B84853E09F438C1EF89F88D54
S1130CA083858F3009F432C1F981F23008F0DAC05B
S1130CB0AF89B88D9C91F1018081981327C1119659
S1130CC0F4018A2D4F89588D2D919191291304C0D7
S1130CD08F5F8B30C9F709C0588F4F8B8B3009F069
S1130CE015C123013A018A0103C023013A018A0193
S1130CF0FC85F13009F041C02E813F81488559853A
S1130D002093A5083093A6084093A7085093A808F9
S1130D10C201A0E0B0E08093780690937906A09396
S1130D207A06B0937B06D80154968D919C91559781
S1130D30A0E0B0E0DC0199278827F801428D538DAB
S1130D4060E070E0842B952BA62BB72B80939F0833
S1130D509093A008A093A108B093A208848D958DC8
S1130D60A68DB78D8093800690938106A09382060A
S1130D70B0938306862D972D17C18AE090E00E94D8
S1130D80861388E691E09F938F930E9472138AE002
S1130D9090E00E9486138AE090E00E948613D801B6
S1130DA054968D909C905597A12CB12C5401992464
S1130DB088245A968D919C915B97A0E0B0E0882A94
S1130DC0992AAA2ABB2A85EEF80180836E817F8145
S1130DD0888599850E948412D8015C964D915D9115
S1130DE06D917C915F9780E00E94370520E030E0B0
S1130DF0A90160E082E00E94FC000F900F9086162B
S1130E009706A806B90630F4A501940161E082E0D2
S1130E100E94FC0000E010E0980140E0C501B4012C
S1130E200E9483006B017C0100E010E0980141E026
S1130E30C501B4010E948300B7EFCB16BFEFDB06F8
S1130E40EB06BFE0FB0618F446015701E3CF83E746
S1130E5091E09F938F930E9472130F900F9080E004
S1130E6090E0A2C08AE090E00E9486131A2D0B2D18
S1130E7002C00F5F1F5F083059F480E20E94F51230
S1130E80EF89F88DE00FF11D80810E94F512F1CFFA
S1130E90EF89F88DE00FF11D80810E94F5121B305F
S1130EA040F3FF92EF920E947213AF89B88D1B96A4
S1130EB08C910F900F908031E1F0883001F1A5E81A
S1130EC0B1E0BF93AF930E947213FF92EF920E941E
S1130ED07213AF89B88D5C964D915D916D917C9143
S1130EE05F978B2D0E9495030F900F900F900F909A
S1130EF00DC0E1E8F0E08E2FDF019B2F05C0ECE789
S1130F00F0E08E2FDF019B2F0E94FD12B0E26B0EEA
S1130F10711C80918406909185066816790608F400
S1130F2091CE2A813B814C815D812F5F3F4F4F4F92
S1130F305F4F2A833B834C835D8380919208909119
S1130F409308A0E0B0E0281739074A075B0708F4C4
S1130F5059CE00E010E020E030E040E069897A8971
S1130F608B899C890E948300698B7A8B8B8B9C8BE9
S1130F70673F3FEF730783073FE0930798F4672BBE
S1130F80682B692B09F01ACE8AE891E09F938F931E
S1130F900E9472130F900F9080E090E005C080E0F3
S1130FA090E002C080E090E068960FB6F894DEBF4F
S1130FB00FBECDBFDF91CF911F910F91FF90EF90A6
S1130FC0DF90CF90BF90AF909F908F907F906F9065
S1130FD05F904F903F902F9008953F924F925F9271
S1130FE06F927F928F929F92AF92BF92CF92DF9235
S1130FF0EF92FF920F931F93CF93DF93CDB7DEB79A
S11310002C970FB6F894DEBF0FBECDBF182F7B010F
S1131010CB010E9467028111ACC0B70181E00E943C
S1131020AA05009709F4A7C0113009F4A6C0DC0191
S113103054964D905C905597612C712C3201552437
S113104044245A964D915C915B9760E070E0930163
S11310508201042B152B262B372B09871A872B8704
S11310603C875C964D905D906D907C905F978AE094
S113107090E00E9486138AE090E00E948613198211
S11310801A821B821C82312C69857A858B859C850A
S11310900E9462006D837E838F839887809192087B
S11310A090919308892B09F447C0132D6D817E819B
S11310B08F819885610F711D811D911D0E945512AC
S11310C089809A80AB80BC8022E0920EA11CB11C66
S11310D0C980DA80EB80FC80F60189819A81E81B63
S11310E0F90BEE56F94F80810E94F512B701A60163
S11310F04F5F5F4F6F4F7F4FC414D504E604F7046E
S1131100F0F5481559056A057B0519F06A017B015C
S1131110E3CF1F5F8091920890919308212F30E0D4
S11311202817390728F449835A836B837C83BECFFD
S113113049835A836B837C8300E010E09801432D3C
S113114069857A858B859C850E94830069877A8767
S11311508B879C87672B682B692B09F095CF8AE8CE
S113116091E09F938F930E9472130F900F9080E0F1
S113117007C082E005C080E003C081E001C080E0D8
S11311802C960FB6F894DEBF0FBECDBFDF91CF9182
S11311901F910F91FF90EF90DF90CF90BF90AF9091
S11311A09F908F907F906F905F904F903F900895A5
S11311B0CF93DF93EC010E946702811104C0BE014A
S11311C082E00E94AA05DF91CF9108952F923F9269
S11311D04F925F926F927F928F929F92AF92BF9243
S11311E0CF92DF92EF92FF920F931F93CF93DF93EF
S11311F0CDB7DEB766970FB6F894DEBF0FBECDBF8E
S11312008E839B87682F792F81E00E94ED078130C0
S113121009F057C083EA91E09F938F930E94721361
S1131220C0909F08D090A008E090A108F090A20878
S11312300F900F90812C912C540100E010E0980144
S113124040E0C701B6010E9483006F3F2FEF720791
S113125082072FE0920741F03FEF831A930AA30A13
S1131260B30A6B017C01E9CFA0919208B091930875
S11312702091840630918506E0918406F0918506DC
S11312800E9458139B01AC01C501B4010E942013B4
S11312900091800610918106209182063091830688
S11312A048015901861A970AA80AB90AC501B40166
S11312B09F0140E050E00E943013B22E21E02C87C1
S11312C055C0823009F474C38AE090E00E9486130A
S11312D08DEC91E09F938F930E94721320E030E095
S11312E0A90160E082E00E94FC0000918606109152
S11312F0870620918806309189060F900F90061773
S113130017072807390740F460918A0670918B0605
S113131080918C0690918D060E94F0026B017C01F5
S1131320611571058105910569F48AE090E00E94D8
S113133086138EED91E09F938F930E9472130F900A
S11313400F9036C30FEF1FEF2FEF3FE041E00E94F5
S11313508300F98AE88ADB8ACA8A1092800610928E
S1131360810610928206109283061C868C85612C5D
S1131370712C2B2D30E040E050E02A833B834C83DA
S11313805D83BF8288248394B72C8982912CA12CFD
S1131390882389F1C701B6010E9462002A813B813A
S11313A04C815D81260F371F481F591F20938E06DD
S11313B030938F06409390065093910660918E0669
S11313C070918F0680919006909191060E9455121B
S11313D0209184063091850640E050E060918006BB
S11313E07091810680918206909183060E94301349
S11313F01B014F800FC0C701B6010E9462006093B9
S11314008E0670938F068093900690939106212CFC
S1131410312C472C8AE090E00E948613A0EFB1E0C3
S1131420BF93AF930E9472130F900F90162D11303B
S1131430F9F48AE00E94F512F101EE56F94F8AE0C0
S113144080838091800690918106A0918206B0915C
S113145083060196A11DB11D809380069093810699
S1131460A0938206B093830691012F5F3F4F190129
S11314700E94ED12582E38E0831324C02114310445
S113148009F480C288E00E94F51280E20E94F512FD
S113149088E00E94F51241E0241A31088091800608
S11314A090918106A0918206B09183060197A109CB
S11314B0B1098093800690938106A0938206B0932D
S11314C0830660C20E94F51281010F5F1F4FF10174
S11314D0EE56F94F50828091800690918106A0913A
S11314E08206B09183060196A11DB11D80938006EA
S11314F090938106A0938206B09383065DE0551213
S113150021C0011582E0180719F18AE00E94F51242
S1131510F801EE56F94F8AE080838091800690911D
S11315208106A0918206B09183060196A11DB11D8A
S11315308093800690938106A0938206B0938306DD
S11315400F5F1F4F011592E0190768F11B2D01C0B1
S1131550198160918E0670918F068091900690910A
S113156091060E948412439480919208909193086A
S1131570242D30E028173907E1F080918E069091F0
S11315808F06A0919006B09191060196A11DB11D00
S113159080938E0690938F06A0939006B093910645
S11315A0292C3A2C02C018011B2DAEE75A123FCF4A
S11315B005C0612EBEE75B123AC0E6C18091800689
S11315C090918106A0918206B09183060197A109AA
S11315D0B1098093800690938106A0938206B0930C
S11315E083069101215031092115E2E03E0750F4B0
S11315F0F901EE56F94F10822F5F3F4F2115F2E0AB
S11316003F07B1F760918E0670918F068091900626
S1131610909191060E948412A701960161E082E0F4
S11316200E94FC008C84882009F473C02CC0C7017C
S1131630B6010E94F0021B012C01611571058105A0
S1131640910569F48AE090E00E9486138EED91E0A2
S11316509F938F930E9472130F900F90A9C18B01D7
S11316609C01482DC701B6010E9483000FEF1FEFB4
S11316702FEF3FE0482DC201B1010E948300872D66
S11316807201610185CE6091A5087091A6088091D0
S1131690A7089091A8080E945512E0917806F0914D
S11316A07906EE56F94F8091800690918106A091BB
S11316B08206B0918306448D558D668D778D6C01BD
S11316C07D01C41AD50AE60AF70A848F958FA68F7E
S11316D0B78F6091A5087091A6088091A708909192
S11316E0A8080E948412B701A60181E00E94370570
S11316F08AE090E00E9486138AE092E09F938F93A1
S11317000E9472138AE090E00E9486130F900F905B
S11317104FC180908A0690908B06A0908C06B09062
S11317208D068F829886A986BA86312C0F2EF2E90F
S11317308F2EF6E09F2EF02D0F2EF4E8AF2EF6E953
S1131740BF2EF02D0F2EF7E34F2EFAE35F2EF02D70
S11317500F2EFAE16F2EF2E07F2EF02D2B843982CA
S11317609D8A8C8A2E8A2A883B886F817885898510
S11317709A850E9462006C877D878E879F878091FF
S1131780920890919308892B09F4A2C01B8600E269
S11317900F2EFBE09F2EF02D9A82888899881E894F
S11317A0CC84DD84EE84FF843B85C30ED11CE11C14
S11317B0F11CC701B6010E945512809184069091D4
S11317C08506892B09F474C04981442369F007C054
S11317D08A899B898E56994F222351F002C082E94F
S11317E096E0DC011C92E4C08C899D891A8A1B8ACC
S11317F0DC012C91222319F0253E09F04AC04E81C8
S1131800512FDC012A81FA014A895B8931913D9388
S11318102150E1F75B8B4A8BFC0103871486158604
S1131820B786A686518A408A538A428AB78AA68A8C
S1131830518E408E958A848A338E228E4091800602
S1131840509181066091820670918306448F558F72
S1131850668F778FC701B6010E9484128AE090E0F8
S11318600E9486138AE090E00E9486137F926F9212
S11318700E94721340918006509181066091820605
S11318807091830681E00E9437050F900F9021E04C
S113189001C02981EA89FB89B096FB8BEA8B809190
S11318A0840690918506E817F90708F491CF01C0E2
S11318B02981FB85FF5FFB878091920890919308B3
S11318C04F2F50E04817590710F4298369CF298313
S11318D000E010E0980140E06F81788589859A8561
S11318E00E948300673F2FEF720782072FE0920761
S11318F098F16F3F7F4F8F4F9F4029F56F81788517
S113190089859A850E94F002E62EF72EC82ED92EDC
S1131910062F172F282F392F41E06F81788589856D
S11319209A850E9483000FEF1FEF2FEF3FE041E005
S11319306E2D7F2D8C2D9D2D0E948300EF82F886C5
S1131940C986DA860DC089E292E09F938F930E9444
S113195072130F900F902CC06F83788789879A87B2
S11319608F819885A985BA85892B8A2B8B2B09F0C1
S1131970FCCE8AE891E09F938F930E9472130F909C
S11319800F9016C01B2D53CD809180069091810637
S1131990A0918206B09183060197A109B1098093B1
S11319A0800690938106A0938206B09383062ACE84
S11319B066960FB6F894DEBF0FBECDBFDF91CF9110
S11319C01F910F91FF90EF90DF90CF90BF90AF9059
S11319D09F908F907F906F905F904F903F902F904B
S11319E00895E0ECF0E0908195FFFDCF8093C60070
S11319F080E090E00895E0ECF0E080818823ECF74B
S1131A008091C60090E008951092C00088E1809310
S1131A10C10086E08093C20088E08093C4001092E5
S1131A20C50080E091E09093AC088093AB0890935C
S1131A30AA088093A90808958FEE85B98FEB84B91D
S1131A4018B817B81BB85D9A8EEF8AB90895F89440
S1131A500E941C0D0E94CE120E94DF120895CF93A3
S1131A60DF93CDB7DEB72F970FB6F894DEBF0FBE66
S1131A70CDBF0E94040D8EE392E09F938F930E944A
S1131A80721383E692E09F938F930E9472132FEF59
S1131A9031EE84E0215030408040E1F700C0000086
S1131AA08EE692E09F938F930E9472130E94270DFB
S1131AB088E692E09F938F930E9472138AE090E0ED
S1131AC00E9486138AE090E00E9486130CE812E0DC
S1131AD01F930F930E9472138AE090E00E94861372
S1131AE08AEB92E09F938F930E9472138AE090E0B6
S1131AF00E9486131F930F930E9472138AE090E052
S1131B000E9486131092A3080FB6F894DEBF0FBE8E
S1131B10CDBF0AE010E00F2EFFEDCF2EF2E0DF2E56
S1131B20F02D0F2EF9EFEF2EF2E0FF2EF02D0E9494
S1131B304A11B82E1F928F93DF92CF920E94721394
S1131B408091A3081F928F93FF92EF920E947213C9
S1131B500FB6F894DEBF0FBECDBFBB2009F41CC383
S1131B60015011090115110511F722C380E193E019
S1131B709F938F930E9472130F900F9002C032E0D4
S1131B80B31209C087E293E09F938F930E9472136C
S1131B900F900F90F6CFFFCF84E493E09F938F9341
S1131BA00E9472130F900F901AC08FE693E09F93D8
S1131BB08F930E9472130F900F9011C08CE893E0E2
S1131BC09F938F930E9472130F900F9008C087EB1E
S1131BD093E09F938F930E9472130F900F9080E570
S1131BE08CBD8DB581608DBD81ED93E09F938F9306
S1131BF00E9472138FE99FE00197F1F700C0000083
S1131C000E948F010F900F90882371F08AE090E07A
S1131C100E9486138DEE93E09F938F930E9472131C
S1131C200F900F90212C02C0222423940F2EFEEF3C
S1131C306F2EF3E07F2EF02D0F2EFFE04F2EF4E0F9
S1131C405F2EF02DC12CD12C7601C3945E019EE051
S1131C50A90EB11C8AE090E00E9486137F926F92D5
S1131C600E9472138AE090E00E9486130E94ED1293
S1131C708AE090E00E9486135F924F920E94721352
S1131C808AE090E00E948613A2E2B4E0BF93AF938F
S1131C900E9472138AE090E00E948613ABE3B4E0E2
S1131CA0BF93AF930E9472138AE090E00E94861360
S1131CB0A3E5B4E0BF93AF930E9472138AE090E06F
S1131CC00E948613A7E6B4E0BF93AF930E947213F9
S1131CD08AE090E00E948613A7E7B4E0BF93AF9335
S1131CE00E9472138AE090E00E948613A8E8B4E090
S1131CF0BF93AF930E9472138AE090E00E94861310
S1131D00AAE9B4E0BF93AF930E9472138AE090E013
S1131D100E9486138AE090E00E948613A5ECB4E04A
S1131D20BF93AF930E9472130E94ED12982E0E94EB
S1131D30F5128BEC890D0FB6F894DEBF0FBECDBF44
S1131D40853098F4211011C08AE090E00E94861337
S1131D508AE090E00E9486138DED94E09F938F9328
S1131D600E9472130F900F9075CF80ED890D85300E
S1131D7008F094C08AE090E00E9486138AE090E024
S1131D800E94861385EF94E09F938F930E947213B1
S1131D900E94ED12182F0E94F5121F7028EE33E0F6
S1131DA0129FC001139F900D1124AA2797FDA0959F
S1131DB0BA2F80938E0690938F06A0939006B093CB
S1131DC091060E94ED12182F0E94F51240918E0682
S1131DD050918F0660919006709191061F70B4E641
S1131DE01B9FC0011124AA2797FDA095BA2F840F29
S1131DF0951FA61FB71F80938E0690938F06A093FE
S1131E009006B09391060E94ED12182F0E94F512CD
S1131E1040918E0650918F066091900670919106C4
S1131E201F70212F30E0C901880F991F220F331F23
S1131E30220F331F220F331F820F931FAA2797FDF0
S1131E40A095BA2F840F951FA61FB71F80938E06E7
S1131E5090938F06A0939006B09391060E94ED1282
S1131E60182F0E94F51280918E0690918F06A091F2
S1131E709006B09191061F70810F911DA11DB11D97
S1131E8080938E0690938F06A0939006B09391064C
S1131E908AE090E00E9486130F900F90C0929908F8
S1131EA0D0929A08E0929B08F0929C08492D50E049
S1131EB0FA01F097EA30F10508F055C1EC5CFF4FE8
S1131EC00C9452132091990830919A0840919B08E0
S1131ED050919C0860918E0670918F0680919006B7
S1131EE0909191060E942312182F8AE090E00E949C
S1131EF08613112349F089E195E09F938F930E9403
S1131F0072130F900F9043C188E295E09F938F93D3
S1131F100E9472130F900F903AC18AE090E00E94E1
S1131F20861380E395E09F938F930E9472130F9022
S1131F300F90812C912C01C048010E94ED12382E83
S1131F400E94F51284010F5F1F4FF401EE56F94F02
S1131F5030822DE0321211C08AE00E94F51232E084
S1131F60830E911CF801EE56F94F8AE080838114A8
S1131F7082E0980649F08401DFCF011592E0190749
S1131F8019F0AEE73A12D8CF60918E0670918F06A1
S1131F9080919006909191060E948412182F8AE0F5
S1131FA090E00E9486138AE090E00E948613112339
S1131FB049F08AE495E09F938F930E9472130F90E7
S1131FC00F90E5C089E595E09F938F930E9472136B
S1131FD00F900F90DCC060918E0670918F068091F7
S1131FE09006909191060E945512182F8AE090E075
S1131FF00E948613111106C0809192068E3709F053
S1132000DBC01BC08BE695E09F938F930E947213F5
S11320100F900F90BCC0F801EE56F94F80818E37B7
S113202061F0F801EE56F94F80810E94F5120F5FBE
S11320301F4F0115B2E01B0771F78AE090E00E9480
S113204086138AE090E00E94861389E795E09F93C7
S11320508F930E9472130F900F9099C08AE090E0C2
S11320600E94861360E070E080E00E94AA058FC0A1
S11320708AE090E00E9486138AE090E00E94861332
S11320808AE895E09F938F930E947213FE01319624
S11320900F900F901192EA15FB05E1F71F861E863B
S11320A002C03F872E870E94ED12182F8D30A9F1B0
S11320B0883099F42E853F85232BA9F388E00E946C
S11320C0F51280E20E94F51288E00E94F5128E85D6
S11320D09F8501979F878E87E6CF80EE810F8F358E
S11320E010F7812F0E94F5122E853F852F5F3F4FF9
S11320F0E1E0F0E0EC0FFD1FAE85BF85EA0FFB1FAA
S113210010832D30310569F68CE995E09F938F9308
S11321100E9472130F900F903AC02E853F852D3088
S11321203105A8F58AE090E00E94861336E3931205
S113213007C0BE016F5F7F4F80E00E94ED0727C09C
S113214087E3981205C0CE0101960E94E6081FC0DD
S113215098E399121CC0CE0101960E94D80817C0BA
S11321600E94FE0314C08AE090E00E9486138AE075
S113217090E00E94861382EB95E09F938F930E94D8
S113218072138AE090E00E9486130F900F908AE009
S113219090E00E9486135ECD8091A308823009F4FA
S11321A004CD833009F40ACD813009F010CDF4CC8C
S11321B0A1E0BA12E4CCDACC809192060E94F51226
S11321C001E010E028CFCF92DF92EF92FF92CF93FD
S11321D0C82F6A017B0180919808811115C08FEE88
S11321E08C0F823040F088EE8C0F823020F080EE2D
S11321F08C0F823048F40B2EB9E0CC0CDD1CEE1CA5
S1132200FF1CBA95D1F7B02D5C988C2F80640E9486
S1132210D2128F2D0E94D2128E2D0E94D2128D2D99
S11322200E94D2128C2D0E94D212C83021F487E869
S11322300E94D21207C085E90E94D21203C0FA9408
S113224011F41BC0F12C0E94D8128F3FC1F3F82E59
S1132250811115C0CA33A1F40E94D81286FF04C0AC
S113226081E08093980802C0109298080E94D812C6
S11322700E94D8120E94D81203C0F82E01C0F82E72
S11322800E94D8125C9A8F2DCF91FF90EF90DF902F
S1132290CF9008950F931F93CF93DF9383EC95E032
S11322A09F938F930E9472130F900F901AE08FEFF9
S11322B00E94D2121150D9F75C982CEE35E03F936E
S11322C02F930E94721340E050E0BA0180E00E9414
S11322D0E310082F0F900F90C0E2D0E00BC040E055
S11322E050E0BA0180E00E94E310082F2197209764
S11322F009F498C082E096E00E948D13013079F7CA
S11323005C9A24E136E03F932F930E9472132EE3EC
S113231036E03F932F930E9472138FEF0E94D212E4
S11323208FEF0E94D21224E536E03F932F930E9450
S113233072134AEA51E060E070E088E00E94E31022
S11323400F900F900F900F900F900F90CEEFD0E062
S113235013C04AEA51E060E070E088E00E94E310B4
S11323602197209749F48AE090E00E94861381E047
S11323708093A30801E003C0813059F702E040E0F4
S113238050E0BA0187E30E94E31040E050E060E0CF
S113239070E489E20E94E310CEEFD0E016C040E082
S11323A050E0BA0187E30E94E31040E050E060E0AF
S11323B070E489E20E94E3102197209731F48AE0C7
S11323C090E00E94861312E038C08111E8CF109289
S11323D098080230F1F428C040E050E0BA018AE3E2
S11323E00E94E3102197209739F48AE090E00E943C
S11323F086131092A30802C08111EECF8091980831
S1132400813021F482E08093A30803C083E08093A9
S1132410A30886E696E09F938F930E9472130F9011
S11324200F900BC011E009C040E050E0BA018AE30C
S11324300E94E310CEEFD0E0DFCF812FDF91CF9168
S11324401F910F9108958F929F92AF92BF92CF9256
S1132450DF92EF92FF926B017C0149015A01AB01BB
S1132460BC0180E20E94E310811116C081E0881A49
S11324709108A108B108B501A4014C0D5D1D6E1DA4
S11324807F1D81E20E94E310811106C040E050E00C
S1132490BA0186E20E94E310FF90EF90DF90CF90A4
S11324A0BF90AF909F908F900895CF93DF93AB012F
S11324B0BC0181E10E94E310811123C05C98C0E05B
S11324C0D0E006C02197209719F45C9A81E019C0E6
S11324D00E94D8128E3FB1F7C0E0D0E00E94D8121B
S11324E0FE01EE56F94F80832196C11582E0D8078C
S11324F0A9F70E94D8120E94D8120E94D8125C9A9E
S113250080E0DF91CF910895CF93DF93AB01BC01BD
S113251088E10E94E31081113EC05C988EEF0E9416
S1132520D212C0E0D0E0FE01EE56F94F80810E9445
S1132530D2122196C11522E0D207A9F78FEF0E948B
S1132540D2128FEF0E94D2120E94D812982F9F713C
S1132550953039F05C9A1FC0219629F45C9A81E089
S11325601AC0C0E0D0E00E94D8128823A9F35C9A74
S11325708FEF0E94D2125C9808C0CE01019621967A
S113258019F45C9A81E007C0EC010E94D8128823F8
S1132590A1F35C9A80E0DF91CF91089582E58CBD30
S11325A01DBC08958EBD0DB407FEFDCF8EB50895F4
S11325B08FEF8EBD0DB407FEFDCF8EB5089510923A
S11325C0C00088E18093C10086E08093C20088E067
S11325D08093C4001092C5000895E0ECF0E080817F
S11325E08823ECF78091C6000895E0ECF0E0808148
S11325F08823ECF78091C6000895CF93DF93EC0114
S1132600FE012491222351F02196FC0184910E9421
S1132610F512CE01FE0124912111F6CFDF91CF9165
S11326200895CF93DF93EC018881882331F02196BC
S11326300E94F51289918111FBCFDF91CF9108950A
S1132640DB018F939F930E946713BF91AF91A29F69
S1132650800D911DA39F900DB29F900D112408959C
S1132660A1E21A2EAA1BBB1BFD010DC0AA1FBB1F92
S1132670EE1FFF1FA217B307E407F50720F0A21B04
S1132680B30BE40BF50B661F771F881F991F1A9471
S113269069F760957095809590959B01AC01BD019B
S11326A0CF010895EE0FFF1F0590F491E02D0994DA
S11326B0A29FB001B39FC001A39F700D811D11247F
S11326C0911DB29F700D811D1124911D08950E94CA
S11326D05813A59F900DB49F900DA49F800D911D3C
S11326E011240895A0E0B0E0E8E7F3E10C94421669
S11326F0FE01359661917191AF018091AB08909183
S1132700AC080E94BA13E2E00C945E166091AB0828
S11327107091AC080E94A21508950F931F93CF9354
S1132720DF93E091AB08F091AC08238121FF1BC03B
S1132730EC0100E010E089916091AB087091AC0865
S1132740DB011896ED91FC911997882331F00995D6
S1132750892B89F30FEF1FEFEECF8AE00995892BC0
S113276011F4C80102C08FEF9FEFDF91CF911F9149
S11327700F910895ACE0B0E0E0ECF3E10C94321674
S11327807C016B018A01FC0117821682838181FF1F
S1132790BDC1CE0101964C01F7019381F60193FD71
S11327A0859193FF81916F01882309F4ABC1853230
S11327B039F493FD859193FF81916F01853229F45A
S11327C0B70190E00E94A215E7CF512C312C20E0F4
S11327D02032A0F48B3269F030F4803259F0833225
S11327E069F420612CC08D3239F0803339F42160D2
S11327F026C02260246023C0286021C027FD27C092
S113280030ED380F3A3078F426FF06C0FAE05F9EC8
S1132810300D1124532E13C08AE0389E300D11243C
S1132820332E20620CC08E3221F426FD6BC120644D
S113283006C08C3611F4206802C0883641F4F601D3
S113284093FD859193FF81916F018111C1CF982FE1
S11328509F7D9554933028F40C5F1F4FFFE3F98359
S11328600DC0833631F0833771F0833509F05BC0D6
S113287022C0F801808189830E5F1F4F4424439452
S1132880512C540115C03801F2E06F0E711CF8018F
S1132890A080B18026FF03C0652D70E002C06FEFF9
S11328A07FEFC5012C870E9497152C0183012C858D
S11328B02F77222E17C03801F2E06F0E711CF80139
S11328C0A080B18026FF03C0652D70E002C06FEFC9
S11328D07FEFC5012C870E948C152C012C85206864
S11328E0222E830123FC1BC0832D90E04816590639
S11328F0B0F4B70180E290E00E94A2153A94F4CFBC
S1132900F50127FC859127FE81915F01B70190E0D5
S11329100E94A21531103A94F1E04F1A5108411463
S1132920510471F7E5C0843611F0893639F5F801A0
S113293027FF07C060817181828193810C5F1F4FE3
S113294008C060817181882777FD8095982F0E5F7C
S11329501F4F2F76B22E97FF09C0909580957095E2
S113296061957F4F8F4F9F4F2068B22E2AE030E051
S1132970A4010E94D415A82EA81844C0853729F4B0
S11329802F7EB22E2AE030E025C0F22FF97FBF2E31
S11329908F36C1F018F4883579F0B4C0803719F057
S11329A0883721F0AFC02F2F2061B22EB4FE0DC0A6
S11329B08B2D8460B82E09C024FF0AC09F2F966017
S11329C0B92E06C028E030E005C020E130E002C0A6
S11329D020E132E0F801B7FE07C060817181828195
S11329E093810C5F1F4F06C06081718180E090E08D
S11329F00E5F1F4FA4010E94D415A82EA818FB2D0A
S1132A00FF77BF2EB6FE0BC02B2D2E7FA51450F4DE
S1132A10B4FE0AC0B2FC08C02B2D2E7E05C07A2C51
S1132A202B2D03C07A2C01C0752C24FF0DC0FE0190
S1132A30EA0DF11D8081803311F4297E09C022FF43
S1132A4006C07394739404C0822F867809F073943B
S1132A5023FD13C020FF06C05A2C731418F4530C22
S1132A605718732C731468F4B70180E290E02C8734
S1132A700E94A21573942C85F5CF731410F43718A3
S1132A8001C0312C24FF12C0B70180E390E02C87F1
S1132A900E94A2152C8522FF17C021FF03C088E5E0
S1132AA090E002C088E790E0B7010CC0822F8678DE
S1132AB059F021FD02C080E201C08BE227FD8DE2C6
S1132AC0B70190E00E94A215A51438F4B70180E381
S1132AD090E00E94A2155A94F7CFAA94F401EA0D4B
S1132AE0F11D8081B70190E00E94A215A110F5CFDD
S1132AF0332009F451CEB70180E290E00E94A21580
S1132B003A94F6CFF7018681978102C08FEF9FEF49
S1132B102C96E2E10C944E16FC0105906150704035
S1132B200110D8F7809590958E0F9F1F0895FC0192
S1132B306150704001900110D8F7809590958E0FE8
S1132B409F1F08950F931F93CF93DF93182F092F7F
S1132B50EB018B8181FD03C08FEF9FEF20C082FFCB
S1132B6010C04E815F812C813D81421753077CF454
S1132B70E881F9819F012F5F3F4F398328831083B8
S1132B8006C0E885F985812F0995892B29F72E81BF
S1132B903F812F5F3F4F3F832E83812F902FDF9103
S1132BA0CF911F910F910895FA01AA27283051F16E
S1132BB0203181F1E8946F936E7F6E5F7F4F8F4F6A
S1132BC09F4FAF4FB1E03ED0B4E03CD0670F781FC9
S1132BD0891F9A1FA11D680F791F8A1F911DA11DAE
S1132BE06A0F711D811D911DA11D20D009F46894E7
S1132BF03F912AE0269F11243019305D3193DEF68F
S1132C00CF010895462F4770405D4193B3E00FD044
S1132C10C9F7F6CF462F4F70405D4A3318F0495D2F
S1132C2031FD4052419302D0A9F7EACFB4E0A69512
S1132C309795879577956795BA95C9F70097610534
S1132C40710508959B01AC010A2E0694579547958A
S1132C5037952795BA95C9F7620F731F841F951F7F
S1132C60A01D08952F923F924F925F926F927F9290
S1132C708F929F92AF92BF92CF92DF92EF92FF9288
S1132C800F931F93CF93DF93CDB7DEB7CA1BDB0B34
S1132C900FB6F894DEBF0FBECDBF09942A883988D9
S1132CA048885F846E847D848C849B84AA84B984E0
S1132CB0C884DF80EE80FD800C811B81AA81B981EC
S1132CC0CE0FD11D0FB6F894DEBF0FBECDBFED0100
S1092CD00895F894FFCF03
S1132CD60000000300000000F10CFB0C0000496E2C
S1132CE676616C69642066696C654E616D652E2E2D
S1132CF600202020202020202020202020202042C8
S1132D067974657300546F74616C204D656D6F72D0
S1132D16793A20002046726565204D656D6F72799B
S1132D263A200046696C6520646F6573206E6F7483
S1132D36206578697374210044656C6574696E67EF
S1132D462E2E0046696C652064656C657465642185
S1132D56002020200046494C45004572726F7220BF
S1132D66696E2067657474696E6720636C75737425
S1132D76657200202046696C6520616C7265616429
S1132D8679206578697374696E672C206170706543
S1132D966E64696E6720646174612E2E002043722E
S1132DA6656174696E672046696C652E2E00204E37
S1132DB66F206672656520636C7573746572210095
S1132DC620456E74657220746578742028656E6477
S1132DD62077697468207E293A002046696C65204C
S1132DE6617070656E64656421002046696C6520B7
S1132DF6437265617465642100456E64206F6620C4
S1132E06436C757374657220436861696E000A4980
S1132E16276D2061626F757420746F20696E697402
S1132E2620736F6D65207661726961626C65732EBD
S1132E362E2E00696E697420646F6E652E000A5426
S1132E46696D6520746F20696E697420736F6D6592
S1132E5620646576696365732E2E2E002A2A2A2A33
S1132E662A2A2A2A2A2A2A2A2A2A2A2A2A2A2A2AB8
S1132E762A2A2A2A2A2A2A2A2A2A2A2A2A2A2A2AA8
S1132E862A2A2A2A2A2A2A2A2A00202020202020FE
S1132E962020202020206D6963726F5344204361F3
S1132EA672642054657374696E672E2E2020000A9E
S1132EB64572726F722076616C75652072657475E1
S1132EC6726E65643A202564000A43617264207454
S1132ED6797065206465746563746564202564008F
S1132EE653442063617264206E6F74206465746554
S1132EF6637465642E2E004361726420496E69749E
S1132F0669616C697A6174696F6E206661696C6562
S1132F16642E2E005374616E646172642043617082
S1132F26616369747920436172642028566572204E
S1132F36312E7829204465746563746564210048DC
S1132F4669676820436170616369747920436172BB
S1132F566420446574656374656421005374616E0A
S1132F6664617264204361706163697479204361AA
S1132F767264202856657220322E7829204465749E
S1132F8665637465642100556E6B6E6F776E2053AE
S1132F9644204361726420446574656374656421E6
S1132FA6000A73657474696E672073706920666FAE
S1132FB672206869676820737065656400464154C9
S1132FC63332206E6F7420666F756E642100507202
S1132FD665737320616E79206B65792E2E2E003E03
S1132FE62030203A20457261736520426C6F636B12
S1132FF673003E2031203A20577269746520736944
S11330066E676C6520426C6F636B003E2032203A1B
S113301620526561642073696E676C6520426C6F2B
S1133026636B003E2035203A204765742066696C40
S113303665206C697374003E2036203A205265611F
S1133046642046696C65003E2037203A2057726931
S113305674652046696C65003E2038203A20446534
S11330666C6574652046696C65003E2039203A20FB
S113307652656164205344204D656D6F7279204317
S1133086617061636974792028546F74616C2F468A
S113309672656529003E2053656C656374204F7024
S11330A674696F6E2028302D39293A200046415420
S11330B63332206F7074696F6E7320646973616252
S11330C66C65642100456E746572207468652042DF
S11330D66C6F636B206E756D6265722028303030BC
S11330E6302D39393939293A0045726173652066BC
S11330F661696C65642E2E004572617365642100F6
S113310620456E74657220746578742028456E6453
S11331162077697468207E293A005772697465209D
S11331266661696C65642E2E005772697465207336
S113313675636365737366756C21005265616420FB
S11331466661696C65642E2E005265616420737530
S1133156636365737366756C2100456E74657220CE
S113316666696C65206E616D653A20002066696C3F
S113317665206E616D6520746F6F206C6F6E672EAF
S11331862E0020496E76616C6964206F7074696FD5
S11331966E21000A576572652061626F757420742A
S11331A66F2073656E642074686520666972737433
S11331B620636F6D6D616E642E2E2E0042414D218B
S11331C6204353206973206E6F7720616374697698
S11331D6650043617264206E6F7420646574656370
S11331E6746564000A53442073656E6420636F6DCE
S11331F66D616E6420646F6E6520287265736574F4
S113320620616E6420676F2069646C6529000A5426
S113321672616E736D697474696E67206F6E65731F
S11332262E2E2E00646F6E65207472616E736D6946
S11332367474696E67000A537563636573736675A0
S10B32466C20696E697400003C
S9030000FC
