S00F00004153465F4D6F642E73726563BC
S113000033C000004CC000004AC0000048C00000DB
S113001046C0000044C0000042C0000040C00000D0
S11300203EC000003CC000003AC0000038C00000E0
S113003036C0000034C0000032C0000030C00000F0
S11300402EC000002CC000002AC0000028C0000000
S113005026C0000024C0000022C0000020C0000010
S11300601EC000001CC0000011241FBECFEFD8E04A
S1130070DEBFCDBF11E0A0E0B1E0EEEAF0E002C0E7
S113008005900D92A030B107D9F721E0A0E0B1E0CE
S113009001C01D92A030B207E1F703D006C0B0CF73
S11100A00895FEDF80E090E00895F894FFCF0D
S9030000FC
